:020000040000fa
:080000000002040000000000f2
:020000040000fa
:04000800b60300003b
:020000040000fa
:04000c00b603000037
:020000040000fa
:04001000b603000033
:020000040000fa
:04001400b60300002f
:020000040000fa
:04001800b60300002b
:020000040000fa
:04001c00b603000027
:020000040000fa
:04002000b603000023
:020000040000fa
:04002400b60300001f
:020000040000fa
:04002800b60300001b
:020000040000fa
:04002c00b603000017
:020000040000fa
:04003000b603000013
:020000040000fa
:04003400da020000ec
:020000040000fa
:04003800b60300000b
:020000040000fa
:04003c00b603000007
:020000040000fa
:04004000b603000003
:020000040000fa
:04004400b6030000ff
:020000040000fa
:04004800b6030000fb
:020000040000fa
:04004c00b6030000f7
:020000040000fa
:04005000b6030000f3
:020000040000fa
:04005400b6030000ef
:020000040000fa
:04005800b6030000eb
:020000040000fa
:04005c00b6030000e7
:020000040000fa
:04006000b6030000e3
:020000040000fa
:04006400b6030000df
:020000040000fa
:04006800b6030000db
:020000040000fa
:04006c00b6030000d7
:020000040000fa
:04007000b6030000d3
:020000040000fa
:04007400c8020000be
:020000040000fa
:04007800140300006d
:020000040000fa
:04007c00b6030000c7
:020000040000fa
:04008000b6030000c3
:020000040000fa
:04008400b6030000bf
:020000040000fa
:04008800b6030000bb
:020000040000fa
:04008c00b6030000b7
:020000040000fa
:04009000b6030000b3
:020000040000fa
:04009400b6030000af
:020000040000fa
:04009800b6030000ab
:020000040000fa
:04009c00b6030000a7
:020000040000fa
:0400a000b6030000a3
:020000040000fa
:0400a400b60300009f
:020000040000fa
:0400a800b60300009b
:020000040000fa
:0400ac00b603000097
:020000040000fa
:0400b000b603000093
:020000040000fa
:0400b400b60300008f
:020000040000fa
:0400b800b60300008b
:020000040000fa
:0400bc00b603000087
:020000040000fa
:0400c000b603000083
:020000040000fa
:0400c400b60300007f
:020000040000fa
:0400c800b60300007b
:020000040000fa
:0400cc00b603000077
:020000040000fa
:0400d000b603000073
:020000040000fa
:0400d400b60300006f
:020000040000fa
:0400d800b60300006b
:020000040000fa
:0400dc00b603000067
:020000040000fa
:0400e000b603000063
:020000040000fa
:0400e400b60300005f
:020000040000fa
:0400e800b60300005b
:020000040000fa
:0400ec00b603000057
:020000040000fa
:0400f000b603000053
:020000040000fa
:0400f400b60300004f
:020000040000fa
:0400f800b60300004b
:020000040000fa
:0400fc00b603000047
:020000040000fa
:04010000b603000042
:020000040000fa
:04010400b60300003e
:020000040000fa
:04010800b60300003a
:020000040000fa
:04010c00b603000036
:020000040000fa
:04011000b603000032
:020000040000fa
:04011400b60300002e
:020000040000fa
:04011800b60300002a
:020000040000fa
:04011c00b603000026
:020000040000fa
:04012000b603000022
:020000040000fa
:04012400b60300001e
:020000040000fa
:04012800b60300001a
:020000040000fa
:04012c00b603000016
:020000040000fa
:04013000b603000012
:020000040000fa
:04013400b60300000e
:020000040000fa
:04013800b60300000a
:020000040000fa
:04013c00b603000006
:020000040000fa
:04014000b603000002
:020000040000fa
:04014400b6030000fe
:020000040000fa
:04014800b6030000fa
:020000040000fa
:04014c00b6030000f6
:020000040000fa
:04015000b6030000f2
:020000040000fa
:04015400b6030000ee
:020000040000fa
:04015800b6030000ea
:020000040000fa
:04015c00b6030000e6
:020000040000fa
:04020800b603000039
:020000040000fa
:04020c00b603000035
:020000040000fa
:04021000b603000031
:020000040000fa
:04021400b60300002d
:020000040000fa
:04021800b603000029
:020000040000fa
:04021c00b603000025
:020000040000fa
:04022000b603000021
:020000040000fa
:04022400b60300001d
:020000040000fa
:04022800b603000019
:020000040000fa
:04022c00b603000015
:020000040000fa
:04023000b603000011
:020000040000fa
:04023400da020000ea
:020000040000fa
:04023800b603000009
:020000040000fa
:04023c00b603000005
:020000040000fa
:04024000b603000001
:020000040000fa
:04024400b6030000fd
:020000040000fa
:04024800b6030000f9
:020000040000fa
:04024c00b6030000f5
:020000040000fa
:04025000b6030000f1
:020000040000fa
:04025400b6030000ed
:020000040000fa
:04025800b6030000e9
:020000040000fa
:04025c00b6030000e5
:020000040000fa
:04026000b6030000e1
:020000040000fa
:04026400b6030000dd
:020000040000fa
:04026800b6030000d9
:020000040000fa
:04026c00b6030000d5
:020000040000fa
:04027000b6030000d1
:020000040000fa
:04027400c8020000bc
:020000040000fa
:04027800140300006b
:020000040000fa
:04027c00b6030000c5
:020000040000fa
:04028000b6030000c1
:020000040000fa
:04028400b6030000bd
:020000040000fa
:04028800b6030000b9
:020000040000fa
:04028c00b6030000b5
:020000040000fa
:04029000b6030000b1
:020000040000fa
:04029400b6030000ad
:020000040000fa
:04029800b6030000a9
:020000040000fa
:04029c00b6030000a5
:020000040000fa
:0402a000b6030000a1
:020000040000fa
:0402a400b60300009d
:020000040000fa
:0402a800b603000099
:020000040000fa
:0402ac00b603000095
:020000040000fa
:0402b000b603000091
:020000040000fa
:0402b400b60300008d
:020000040000fa
:0402b800b603000089
:020000040000fa
:0402bc00b603000085
:020000040000fa
:0402c000b603000081
:020000040000fa
:0402c400b60300007d
:020000040000fa
:0402c800b603000079
:020000040000fa
:0402cc00b603000075
:020000040000fa
:0402d000b603000071
:020000040000fa
:0402d400b60300006d
:020000040000fa
:0402d800b603000069
:020000040000fa
:0402dc00b603000065
:020000040000fa
:0402e000b603000061
:020000040000fa
:0402e400b60300005d
:020000040000fa
:0402e800b603000059
:020000040000fa
:0402ec00b603000055
:020000040000fa
:0402f000b603000051
:020000040000fa
:0402f400b60300004d
:020000040000fa
:0402f800b603000049
:020000040000fa
:0402fc00b603000045
:020000040000fa
:04030000b603000040
:020000040000fa
:04030400b60300003c
:020000040000fa
:04030800b603000038
:020000040000fa
:04030c00b603000034
:020000040000fa
:04031000b603000030
:020000040000fa
:04031400b60300002c
:020000040000fa
:04031800b603000028
:020000040000fa
:04031c00b603000024
:020000040000fa
:04032000b603000020
:020000040000fa
:04032400b60300001c
:020000040000fa
:04032800b603000018
:020000040000fa
:04032c00b603000014
:020000040000fa
:04033000b603000010
:020000040000fa
:04033400b60300000c
:020000040000fa
:04033800b603000008
:020000040000fa
:04033c00b603000004
:020000040000fa
:04034000b603000000
:020000040000fa
:04034400b6030000fc
:020000040000fa
:04034800b6030000f8
:020000040000fa
:04034c00b6030000f4
:020000040000fa
:04035000b6030000f0
:020000040000fa
:04035400b6030000ec
:020000040000fa
:04035800b6030000e8
:020000040000fa
:04035c00b6030000e4
:020000040000fa
:10040000af9620000edf20000e01880000000000e3
:10041000000020000000e000020032000001200087
:100420002002880014000700d20007000000e0004e
:1004300003003a0080b822000100200002003700cb
:100440000000200001002000810f70000100320038
:1004500014000700000020000000e000020032004d
:100460000000020000000000a01a020000000000ce
:100470000040da000000fe004440a900e04c2000eb
:100480000000e0000300320000002000a00188000e
:100490004440a800000006008a1f78008b1f7800e7
:1004a0000000060091018800800478000000eb0045
:1004b0001a003700e284440032a0b4009905ba0063
:1004c000e284440032a0b4009906ba00e2844400f9
:1004d00032a0b4000006eb00476fde00fd07b2005b
:1004e000636ce10003003a00ebff07000000eb0043
:1004f0000a003700606ce10004003a00005deb0088
:100500008b05e900fdff3e00040037006168e10053
:10051000010032000086eb000b00070019c7ba008b
:100520001905ba000e04e00003003a000a00e000da
:10053000e0ff3a0000000600fe07b2009e018800be
:100540008a047800f5ff3700395dba008b05e900b1
:100550000c003200295dba008b05e900080032006a
:100560000c00e00003003a00e284440032a0b40032
:10057000f5ff370019ddba008b05e900faff3a00f4
:100580008904e800e184440032a0b40000000600c1
:100590003400f800881f780008002000a8018800b7
:1005a0004f0478008660a9009660a9003400f90025
:1005b0000040060000a0fe003400f800881f78000c
:1005c00008002000a80188004f0478002409ec00ee
:1005d000204988008460a900f1ca2300010888002e
:1005e000ea0f50000d003a002429ef0080488000f7
:1005f0009148800061004000e08048008048880009
:100600009148880020912000219220000080e8007d
:100610001008e800810f5000fcff3a003400f90098
:100620000080fe000040060000a0fe003600f8003a
:10063000849fbe00869fbe00889fbe008a1f7800f0
:100640003400f80004002000a40188000200fa0031
:100650009680ab003c0032008680ab003a0032004e
:100660008680a90020c6b300e20d0700e0ff9f00ce
:100670000008a30002003200fa08a900a428ef0035
:100680000038a3002a003200fac8bf000058a300b7
:1006900024003a0041c0b30030c7b300bd0d0700cd
:1006a00000302000e70d070000c0e800aae8b7000e
:1006b00001c4b300814f500013003e00faa8a80007
:1006c0001800200088447800aa8a2000003020000a
:1006d00008004000db0d070000757c008944e8003d
:1006e0000984fb00aac8bf000080fb000080e8006e
:1006f000800f5400f5ff340011c0b300b0c1b30047
:10070000a40d07000300370011c0b300b0c1b3004f
:10071000a00d07008040eb0030c7b3009d0d07001f
:100720000300370011c0b300b0c1b300990d07003a
:10073000eff8970070c060000300320001c8b300fa
:1007400090c5b300930d07000080fa003400f90053
:100750004f0578004f04be004f03be004f02be009d
:100760003600f9000080fe00004006000040da007c
:100770000000fe0000000500839f68000100e0000b
:1007800002003d0060001000e08018000300e0005f
:1007900002003d0060011100e081190046000700e1
:1007a0004f00e00002003b0060001000e0801800f5
:1007b000000006000001be001b0007000470a70037
:1007c00003f0a10003f8a30013003a006509b1008b
:1007d00010003200090035006928e10002003500f0
:1007e0000100280000000500000040008180480052
:1007f0008502e900fcff3a0000000600f88f420085
:10080000050035008100d1000080d3008502e8009a
:10081000fcff3a00000006008000eb00000005002d
:100820006011b8008c033700c70ade00f107b20080
:10083000f50fb20008003200e1cf420002003200a2
:100840000170a00024000500810f7000010032003b
:100850000408050044000500810f700002003a0002
:10086000140005008502e9000000400081c0480036
:10087000fcff3b000170a00024000500811f7800f0
:100880000100e00002003d0060001000e080180060
:100890000300e00002003d0060011100e08119004a
:1008a000150007004f00e00002003b006000100050
:1008b000e0801800000006006022b8000602200058
:1008c0000000d0008180d2000482d2008582d20054
:1008d0000000a0000202520083825a00030031008f
:1008e0000202420083824a000000a1000603e900e0
:1008f000f3ff3a0000000600efff07000400be000f
:100900000000060007f82700078361000638e100b1
:1009100004003a00f7072000878361008703710015
:1009200001003a0003f0a200889fbe008a9fbe002b
:100930008c9fbe00470ade000480a100c71ade00bb
:100940000580a100070028000785600087856100f9
:10095000f70f20000720e1009e0032000728e10089
:100960009c003200010678000400e000b400320070
:10097000f7072000878060000170a0000500e000fc
:10098000c0003200f7072000878161000370a000db
:10099000050652000f003a000b50e1000b00320038
:1009a0000308e10002003a000200e1007e0032008c
:1009b0000204500083845800040031000001fd004f
:1009c0008101fd008402fd008a05fd006044b8003d
:1009d000210037000520e10005003d000001fd0079
:1009e0008101fd008402fd008a05fd00050652001c
:1009f0007a60e100050035000170a1004722dd00aa
:100a0000848070008a807000630037006044b80002
:100a1000ef02660007ff2f00070666000500e000f2
:100a200006003400f08312008714dd000511de009b
:100a3000071bdd00060171008519de007060e10012
:100a4000050035000904780082047800030178006d
:100a50008001eb00700656000b50e10003003a00e5
:100a60000200400083804800040037006004140046
:100a7000e0841c0002005800838058000188a30015
:100a8000060032008100d1000080d3008984d300a9
:100a90000884d3000402e800270037000178a3008f
:100aa00025003a000100e000030032008186cf00fb
:100ab000698656000a0037008c0020000000e00024
:100ac00004003a0009007800880478000004eb0074
:100ad000700252008086cf000d0646000c06e90029
:100ae0007060e100060035008000780009007800a1
:100af000880478000004eb00700656007002520073
:100b00000c00e0000c0034008c08dd00f00316003f
:100b10000703de00868070000c00dd00074bde005e
:100b2000060070008c4cdd000743de0086847400f4
:100b30000c44dd000c0252006120e1002000350071
:100b4000610160000700280087816400f7ff27002b
:100b500087836400070374000300e000060032008e
:100b600082037300040032000000e800e0804800c7
:100b70000188a3000e003a00f70f20000720e100d3
:100b80004a003d000170a1004722dd008100720093
:100b90008a8070000000be004f06be004f05be00f8
:100ba0004f04be00000006006000b800faff3700e6
:100bb0008100d1000080d3000402e800eeff37007e
:100bc0000401780089017400a10107008a80700087
:100bd000f1ff3700f7010700070278000001fd0070
:100be0008101fd00f3010700870278008503720090
:100bf0000778a300040032000001fd008101fd0020
:100c000006020700e4ff3700850362000768a300bf
:100c1000080032000b50e10003003200f0ff2f000b
:100c2000f1ff2700dcff37000001fd008101fd001e
:100c3000d9ff37000468a300d7ff3200faff37005e
:100c4000f8ff2700888360000b003a000000e000f6
:100c500009003a00830364008283730002003200bb
:100c60000200be00ccff37000b50e100ceff3a007f
:100c70000200be00c8ff370014002000810064009d
:100c80003eff3700f8ff27008883610004003a0028
:100c90000200e00002003a008c007800beff37003e
:100ca000150020008301640039ff370001f8270098
:100cb0000000200081007500b7ff3700889fbe004c
:100cc0008a9fbe008c9fbe001b0020000202be0057
:100cd0000586680006002800060666004709de0053
:100ce000f20fb200820032000243e80080003200be
:100cf000c729de00f30fb2007d0032000343e80095
:100d00007b003200f107b2000170a000f507b200cd
:100d10000570a000c708dd004903de008680700072
:100d20004700dd00c72add004923de00868272000d
:100d30004722dd000305510004035000858358005d
:100d40000300310000004000818048000a05e900ee
:100d50008c1f78008a9fbe000400500085805800d8
:100d60000402420085824a00000040008180480061
:100d70000005eb000004be006033b8000406be00ae
:100d80000d48e10056003100110009004dccd8009b
:100d90000c01b8000d02b8008481410060824a0055
:100da0008283530003045c0084845c0060055d0062
:100db0000a00e00025003a00800578000d40e100bf
:100dc0004900310088007800070078001100090010
:100dd0004d88d8000c01b8000d02b8008481410094
:100de00060824a006003110083835b0004045c009e
:100df000e0845c000900e00021003a004f01be00e1
:100e00000300e0002b003200e301600007067300de
:100e10008c81710001003200640070004200de002d
:100e20004e5edd000c007000c258de0001e0a00044
:100e300083010700cf017800818071004f06be005a
:100e40004f05be004f04be00000006008c83430027
:100e50000d044c00e0844c0060054d000000e900ea
:100e60000a00e000d4ff32008c8343000d044c00e4
:100e7000e0844c0060054d000000e900ceff370023
:100e80000c0343008d834b0060044c00e0844c0055
:100e90000000e9000900e000d8ff32000c03430025
:100ea0008d834b0060044c00e0844c000000e9009e
:100eb000d2ff37004200de004e5edd000c00700005
:100ec000c258de0001e0a000cf0178000300e0007e
:100ed000daff320060001000e0801800d7ff370012
:100ee000f0ff2f00aaff3700f0ff2f00b9ff3700f7
:100ef0000404be002f010700870678000004fd00ef
:100f00008104fd002b010700078366000678a3001b
:100f1000030032000960a7000800be002c00370063
:100f20000d78a300020032000800be002800370040
:100f30000778a30026003a0001f0a10009f0a10003
:100f40000668a30003003200f1ff2700f0ff2f0026
:100f5000baff37000d68a300030032000800be008e
:100f60008c807000b5ff37000768a30007003a00c7
:100f70000648a30003003200f1ff2700f0ff2f0016
:100f8000aeff37000d48a300030032006000b80038
:100f90008c807000a9ff37000748a30004003200ce
:100fa00001f82700000020008c807000a3ff3700ac
:100fb000760107000004fd008104fd0002057800b1
:100fc000720107000802be008a01780059ff37004d
:100fd0000160a00012022000324b880097ff37000a
:100fe0000100e000120032000500e00010003200b5
:100ff000889fbe008a9fbe008c9fbe000006eb004b
:1010000001f8a3000300320060001000e080180027
:101010000cf0a00005f8a3000300320060021200eb
:10102000e0821a000cf0a2008005eb0041ff3700bf
:101030006000b80002000500038368000700280074
:1010400007036300470ade000480a100c71ade0020
:101050000580a100f70f20000720e10042003200c8
:101060000728e10040003200889fbe008a9fbe0032
:101070008c1f7800f107b200f307b2000400e00013
:10108000640032000170a0000500e000680032003a
:101090000370a00085054200eb07b1000204b80010
:1010a0000302b8008484440060854a00020ab80044
:1010b000848444000a854a00030ab80004054500f8
:1010c000040033000804d0008984d2000a85d200cd
:1010d0008b05e9006158e1003d0035000210200059
:1010e000090161000308200089816100f7072000e1
:1010f0008783640008867300c84cde00c853dd0097
:10110000878474004855de000300e00006003200ca
:1011100082037600040032008904e80060054d0077
:101120000a88a3000c003a00f70f20000758e100de
:1011300044003d000a70a100c75ddd000a8575000e
:101140008a007300090078004f0678004f05be0042
:101150004f04be00000006000a05d1008984d300b8
:101160008b05e800f0ff3700881f78000604780040
:1011700090000700070278000001fd008101fd00da
:101180008c00070087027800850372000778a300af
:10119000050032000001fd008101fd009f000700f5
:1011a0004f04780000000600850372000748a30082
:1011b00003003200f0ff2f00f1ff2700f8ff370097
:1011c0000000200001f8270088807000f4ff37003d
:1011d000880178004848dd00808171004848de00c1
:1011e000c850dd0001007000c850de000604780021
:1011f0000b0178001600070088807000d2ff3700ce
:101200000500e00005003200170020003a0007004a
:101210009dff370081037000f9ff3a0086007800d7
:101220004f0678004f05be004f04be0000000500c9
:1012300083037100f9ff3200270020002e00070011
:1012400094ff370001f8270086807000f4ff370014
:101250000100e00026003200610111007810e10079
:1012600023003c006022b8007010e100040035004b
:1012700080027800010078008000eb0070015100ce
:101280000200e0000900340070031100062add00ae
:10129000822ade008603dd00878272000200de0003
:1012a000860bdd00070070008208de00848171007b
:1012b000f4ff27000482620084817100040028008a
:1012c000848262006102600005f0a6000000060052
:1012d00004827100070032000000e800e08048004e
:1012e000000006000002be006000b800efff3700fb
:1012f0006000b80000000600889fbe000004eb00fc
:101300006138e10016003a000100e00008003a00f0
:10131000c800de004800dd00880020000100e00079
:1013200003003a00c800de004800dd006804440005
:101330008184cf00e9845400060034008908dd0070
:10134000f08314008703de00878070000900dd0051
:1013500009044400610214004f04be0000000600ae
:101360000300e00008003a00c811de004811dd006b
:10137000880020000300e00003003a00c811de00ee
:101380004811dd00680444008384cf00e9845400e0
:10139000060034008919dd00f08314008713de0095
:1013a000878171000911dd0009044400e102140085
:1013b000e9ff37002700200001f0a70017002000f8
:1013c000470bde00f60fb200040032000643e800cf
:1013d0000a0032004702b300000006000103780053
:1013e000f607b2000603700002003a000703b300dc
:1013f000000006008702b300000006000103780029
:10140000f607b20006037000020032000770a00069
:10141000000006000760a000000006000478a3009a
:10142000040032000578a300030032000168a30025
:1014300001003a000200be000160a00000000600aa
:1014400081017000270032008002eb0001f8a30048
:101450000300320060001000e0801800150020003a
:10146000f40720000202420020003400f7032000ad
:1014700087036000060420000003630002082000c8
:10148000000161004700de00c909dd000080710035
:10149000c708de000600e000080032008703710084
:1014a000060032001000b0000180b0000188a300e7
:1014b00002003200c108de000402e800f107b200b9
:1014c000f30f20000320e10003003d004722dd0070
:1014d000810072002900370001f827000000eb00ae
:1014e000260037006000b800000006006802120005
:1014f0007f20e100020034006000b8001f003700c8
:101500006011b8007020e10004003500800178000f
:10151000010078008000eb00700252000400e0003f
:1015200009003400f00312000719dd008419de0001
:101530000703dd00868171000400de00070bdd007b
:10154000060070008408de00f7ff27008383630035
:1015500087037100060028000303630007003200c0
:101560000700e00003003a0061016000028173009f
:10157000020032001000b0000180b0000500a6009b
:101580000000060001f0a000000006004f0ade0087
:101590004709de00f107b200f20fb2000b00320083
:1015a000f207b1000170a000c708dd00c901de002c
:1015b000838070004700dd000400a60000000600e4
:1015c00060001000e080180000000600810f70002d
:1015d00001003a00000006008182cf000500e00013
:1015e00010003e008082cf00ee8242007028e100b1
:1015f0000400390007003e00800078000000eb0086
:101600000e003700708312008600de000500dd004a
:101610000a003700708352008600dd000000eb00f6
:1016200006003700e28252008508dd007083120058
:101630000603de00868070000500dd007507b0003f
:101640000501ea000400a60000000600600010008a
:10165000e080180000000600889fbe008a9fbe0040
:1016600000827000040271000482710026003200c2
:101670000004be000200be006011b8006b0920002b
:10168000950220000182cf000a0039000541b10017
:101690000082cf00070039000541b1000982cf0068
:1016a000040039000541b1000882cf000100390073
:1016b0000541b10005425200120032000a003b0011
:1016c00082817100610164008100d1000080d3003b
:1016d0008984d3000884d3008b05e8000442e80025
:1016e000f7ff3a00070037000804440089844c00e3
:1016f00000004800818048008b05e9000442e900b1
:10170000f9ff3a00030007004f05be004f04be007a
:101710000000060081002000618055000b003d00a4
:101720000b00200061fe2f000100e1001d003400cd
:1017300082817100610164008904d1000884d300b2
:101740000000e800faff3a00710020006100640028
:1017500003007000020060000900320061044400d0
:10176000e0844c000988a500050032008b05e800e4
:101770006808e10002003a008904d1000884d3001f
:10178000f20f20000258e10005003d00c75ddd00ba
:10179000f907b20089807500080078000000060093
:1017a0000bf827008b00780000000500f287470047
:1017b000889fbe008a9fbe008c9fbe008e1f78004f
:1017c0000003be000400200005f82f0000024200c4
:1017d00081824a00f2ff2f00f3f72700820f5200a8
:1017e000838f5a001b0036000001400081814800b1
:1017f000e00f5100e08f590006003a000001be00e2
:101800000dfe07000001be000000200001f82b00c3
:1018100008003700e00f5000e08f580007003d003f
:1018200012022000424b88000001be0035fc070078
:101830006011b80021fd0700790037000200200088
:1018400003c02400fcfd07000003be007efe2f0045
:101850000a003700820f5000838f580070003e004e
:101860006000b8000200200003f82300820f53003c
:10187000838f5b006a0032000007eb00d0b02f00be
:10188000a10420000603400087834800fe07b10042
:1018900087007800f107b20006007800324f200080
:1018a00053f3230000004100818049000200200022
:1018b00003f82300d6b79f00e7b79f0011fc07008d
:1018c0000004be00020020000300240016fc0700f4
:1018d0000001be000800be00f8fc07000002be00c8
:1018e0000001be00f4b79f0085bf9f00d2fd070036
:1018f0000006be000001be00cffd07000005be00cf
:101900000200200003f023000800be00cafd07000b
:101910000801be00c8fd0700b0b79f00c1b79f0017
:101920005fb39700efb39700473bde000600470028
:10193000cf80de004000070090b79f00a1b79f0056
:10194000e29e2e0013e923000a00be00bafd070044
:10195000a2aa2a00a3f22300f3fb07000001be00a5
:101960000c00be00b4fd07000006be0062e22900c4
:1019700083e723000a00be00affd070032e12c0020
:10198000c3ec2300e8fb07000001be000a00be0014
:10199000a9fd07000001be000c00be00e2fb07002d
:1019a0000001be003fb09700cfb09700defb0700fc
:1019b0000001be007fb297008fba97000400be00fe
:1019c0009dfd07000005be00127d2f0073712300ee
:1019d0001fb09700afb0970097fd07000001be0051
:1019e0000a00be00d0fb07003fb19700cfb19700bf
:1019f000c4fb07000801be00cbfb07000004be00cb
:101a00000218270013f323001fb09700afb0970010
:101a100089fd07000001be000800be00c2fb0700f0
:101a20004f0778004f06be004f05be004f04be00b2
:101a30002f01b100000006004f89de00820178000e
:101a400000003700881f7800030478000300e000de
:101a500007003d0060001000e080180060011900e0
:101a6000e081190002003b0001f02d000300370067
:101a7000f9fe070008f0a70001f0a0004f0478006d
:041a8000000006005c
:020000040000fa
:101a84000d0a000000500000616300006b65000057
:101a94007420000023000000207c000020000000cf
:101aa4004e6f00006465000020200000200000004c
:101ab4005458000020490000442000002000000089
:101ac4002d2d00002d00000020200000207c0000af
:101ad40020000000546500006d700000202000000c
:101ae400002d00002d2d00002d2d000000200000f1
:101af400462000007c200000004c000069670000c4
:101b04006874000020000000206c000078000000d1
:101b1400546900006d650000200000003a000000d8
:101b24006454000020000000525300005349000098
:101b340020000000202d00002d2d000020000000ba
:101b44006d570000207c0000200000004875000054
:101b54006d690000646900007479000020000000d1
:101b64002d2d000000200000252000007c20000016
:101b74000045000078740000726e00006c200000c4
:101b8400002000006d560000005400006869000049
:101b9400732000006d6f000064650000206e00007b
:101ba4006f740000206900006d7000006c65000017
:101bb4006d6500006e740000656400000d0a00008d
:101bc400000d00000a4c0000696600006574000006
:101bd400696d000065200000506f0000776500000b
:101be4007228000052290000204500006e650000a4
:101bf40072670000792000004861000072760000de
:101c040065730000746900006e67000020440000e2
:101c140065760000656c00006f7000006d65000063
:101c24006e740000204b0000697400002066000000
:101c34006f7200002057000069720000656c00009c
:101c44006573000073200000536500006e7300008c
:101c54006f720000730000000d0a0000506f000056
:101c64007765000072630000617300007420000057
:101c7400436f0000727000006f7200006174000016
:101c8400696f00006e0000000d0a00005665000038
:101c940072730000696f00006e200000000d0000e8
:101ca4000a530000656c000065630000746900005d
:101cb4006f6e0000206f0000662000006368000063
:101cc400616e00006e6500006c20000000200000c2
:101cd40069730000206e00006f7400002073000020
:101ce40075700000706f000072740000656400007d
:101cf400206900006e20000063750000727200000d
:101d0400656e000074200000636f00006e640000c4
:101d140069740000696f00006e2e00000d0a000057
:101d2400000d00000a540000696d000065200000e9
:101d3400002000007c200000546900006d65000054
:101d440020730000696e000063650000206c0000d1
:101d5400617300007420000070610000636b000078
:101d6400657400000d0a000000000000713d0000d1
:101d7400a241000085eb0000a7410000d7a30000aa
:101d8400ae41000085eb0000b3410000d7a3000082
:101d9400ba410000cdcc0000c041000000000000aa
:101da400c84100005c8f0000ce41000048e1000003
:101db400d4410000295c0000db410000e17a00000e
:101dc400e2410000295c0000e94100003d0a0000f6
:101dd400f1410000c3f50000f8410000295c000057
:101de400ff41000085eb0000024200001f85000057
:101df40007420000ec5100000b4200005c8f000021
:101e04000f4200009a9900001342000052b80000eb
:101e1400174200009a9900001b4200009a990000a2
:101e24001f4200007b1400002442000085eb0000e8
:101e340027420000333300002c420000d7a30000e7
:101e4400304200005c8f000035420000cdcc000021
:101e5400394200005c8f00003e4200005c8f0000ad
:101e640042420000d7a3000046420000ae470000f3
:101e74004b4200008fc20000b53f00000ad70000ab
:101e8400c33f0000d7a30000d03f000052b80000b9
:101e9400de3f0000cdcc0000ec3f0000f62800003f
:101ea400fc3f00008fc20000054000007b140000ce
:101eb4000e4000008fc200001540000052b8000020
:101ec4001e4000003d0a000027400000295c00007d
:101ed4002f400000ec5100003840000085eb00006a
:101ee400414000001f8500004b400000e17a0000e3
:101ef400544000007b1400005e400000713d00006f
:101f04006a4000005c8f000072400000a470000072
:101f14007d400000e17a00008440000085eb000071
:101f2400894000003d0a00008f400000b81e0000f8
:101f34009540000048e100009a400000ec51000088
:101f4400a040000052b80000a6400000cdcc000024
:101f5400ac40000033330000b3400000c3f5000080
:101f6400b8400000295c0000bf400000a4700000dd
:101f7400c5400000cdcc0000cc4000000ad70000d2
:101f8400d3400000713d0000da4000009a9900003f
:101f9400e1400000c3f50000e8400000295c0000b7
:101fa400ef400000295c0000f74000007b140000b3
:101fb400fe40000048e10000024100005c8f000088
:101fc4000641000052b800000a410000713d0000c3
:101fd4000e4100005c8f00001241000066660000a4
:101fe4001641000048e100001a4100005c8f000027
:101ff4001e4100003d0a000023410000333300006d
:10200400274100001f8500002b410000ec51000017
:1020140030410000ec51000034410000e17a00003e
:10202400384100008fc200003d4100008fc2000013
:102034004141000052b8000046410000295c000004
:102044004b4100001f8500004f410000cdcc000033
:1020540054410000ae470000594100000000000058
:10206400604100003d0a000063410000cdcc000047
:1020740068410000ae4700006d41000052b8000006
:102084007241000052b8000076410000e17a00007d
:102094007c410000b81e0000814100000ad7000006
:1020a40083410000ec51000086410000b81e00008e
:1020b4008941000014ae00008b4100005c8f0000d9
:1020c4008e410000ae470000914100009a99000043
:1020d40093410000ec510000964100000ad7000033
:1020e4009941000052b800009c41000048e1000002
:1020f4009e41000052b800009e3e00007b14000088
:10210400ae3e0000a4700000bd3e0000cdcc000037
:10211400cc3e0000f6280000dc3e00001f850000d5
:10212400eb3e000048e10000fa3e000014ae00005f
:10213400073f0000295c00000f3f00009a9900004f
:10214400193f0000ae470000213f00001f8500003a
:102154002b3f000033330000333f0000a470000025
:102164003d3f000014ae0000473f000085eb000037
:10217400513f0000f62800005c3f0000c3f500005a
:10218400683f000033330000733f0000ae47000097
:10219400813f0000b81e0000853f0000713d000033
:1021a4008a3f0000d7a30000903f00003d0a0000d2
:1021b400973f0000f62800009c3f00005c8f000061
:1021c400a23f0000c3f50000a83f0000295c000006
:1021d400af3f0000cdcc00004c3e00003d0a0000a3
:1021e400573e0000ae470000613e00001f8500001e
:1021f4006b3e00008fc20000753e0000000000002e
:10220400803e0000b81e0000853e0000713d0000c5
:102214008a3e0000e17a0000943e00009a99000092
:10222400993e00000ad70000233c00000ad70000b2
:10223400233c00000ad70000233c00000ad700001a
:10224400a33c00000ad70000a33c00008fc200009a
:10225400f53c00008fc20000f53c00000ad70000e6
:10226400233d00000ad70000233d0000cdcc000030
:102274004c3d0000cdcc00004c3d00008fc200005e
:10228400753d00008fc20000753d0000295c000010
:102294008f3d0000295c00008f3d00000ad700003c
:1022a400a33d00000ad70000a33d0000ec5100004c
:1022b400b83d0000ec510000b83d0000cdcc00005a
:1022c400cc3d0000cdcc0000cc3d0000ae4700006a
:1022d400e13d0000ae470000e13d00008fc2000078
:1022e400f53d00008fc20000f53d0000b81e00005f
:1022f400053e0000b81e0000053e0000295c0000f9
:102304000f3e0000295c00000f3e00009a99000077
:10231400193e00009a990000193e00000ad70000f7
:10232400233e00000ad70000233e00007b14000077
:102334002e3e00007b1400002e3e0000ec510000f5
:10234400383e0000ec510000383e00005c8f000075
:10235400423e00005c8f0000423e0000cdcc0000f5
:102364004c3e00000d0a00000d0a0000436f0000ff
:102374006e6e000065630000746900006f6e0000fb
:10238400202000002020000020500000656500008f
:10239400724c00006f6e000067410000646400002e
:1023a40072650000737300002020000020200000ec
:1023b4002050000065650000724900006e66000050
:1023c4006f0d00000a000000202000002020000003
:1023d40020200000202000002020000020200000f9
:1023e4002000000020200000002000002020000029
:1023f400200000000d0a0000000000003031000041
:10240400323300003435000036370000383900001c
:0c24140041420000434400004546000027
:020000040000fa
:10242000889fbe0020d42800470c07000009e20066
:10243000cd023a0050d42800430c0700e04780004a
:10244000f1478000f2702200820f5000e08f5800a8
:1024500027003600027122000300200016f9070051
:10246000a20020000300200023f907000043b00071
:102470002e0c0700823e200003002000e047800071
:10248000f14780000cf90700a200200003002000a3
:1024900019f907000043b000240c07004206200091
:1024a00003002000e0478000f147800002f90700a8
:1024b000a2002000030020000ff907000043b00035
:1024c0001a0c0700a200200003002000e047800053
:1024d000f1478000f8f80700a20020000300200068
:1024e00005f907000043b000100c07005200370048
:1024f00000c2b3000d0c0700e0478000f1478000e8
:10250000723e2000820f5000e08f58001d00360000
:10251000823e200003002000e7f80700a200200010
:1025200003002000f4f807000043b000ff0b070091
:102530004206200003002000e0478000f1478000b1
:10254000ddf80700a200200003002000eaf80700e1
:102550000043b000f50b0700a2002000030020009c
:10256000e0478000f1478000d3f80700a200200078
:1025700003002000e0f807000043b000eb0b070069
:102580002d00370000c2b300e80b0700e0478000d1
:10259000f147800032062000820f5000e08f580083
:1025a000130036004206200003002000c2f8070096
:1025b000a200200003002000cff807000043b00075
:1025c000da0b0700a200200003002000e047800093
:1025d000f1478000b8f80700a200200003002000a7
:1025e000c5f807000043b000d00b07001200370009
:1025f00000c2b300cd0b0700e0478000f147800028
:10260000e90f5000e08f580009003600a2002000ba
:1026100003002000a8f80700a2002000030020000b
:10262000b5f807000043b000c00b070002003700f8
:1026300000c2b300bd0b0700a20020000300200071
:10264000e0478000f1478000abf807000043b0008e
:10265000b60b0700e0d42800bb0b070020d52800ec
:10266000b90b070002c9bf000080fb00d2cc2c00d0
:102670000201b8004319de006a11b90002005000df
:102680000043b000a90b0700e0d42800ae0b070000
:10269000a0d52800ac0b070003c9bf008040e900ab
:1026a000e3cf40000300360020d62800a60b070029
:1026b000200037000080fb004200de00b14721000f
:1026c0000100b8000100d1000080fb00d8cc2c0034
:1026d0000801b8004319de006a11b9000200500079
:1026e0000043b000910b070003c9bf000080fb004e
:1026f0000800b8004308de000080fb000801b800b5
:102700004319de006a11b900020050000043b00016
:10271000860b070003c9bf000080fb000804b80057
:102720004349de006a11b900020050000043b000c6
:102730007e0b070060d62800830b0700c0d6280058
:10274000810b07004049800062f02f00000141002a
:10275000813e2000810f51000300360030d7280051
:10276000790b070059003700713e2000810f50009f
:10277000200036004300de00510c22000100b800aa
:102780004408de00d8cc2c000801b8004319de0054
:102790006a11b900020050000043b000630b07004b
:1027a000404980004200de00b14721000100b8002e
:1027b0000100d1000801b8004319de006a11b90018
:1027c000020050000043b000580b07004049800051
:1027d0000800b8004308de000804b8004349de00e2
:1027e0006a11b900020050000043b0004f0b07000f
:1027f0002c00370000c2b3004c0b0700404980009a
:1028000031062000810f5000150036004200de0026
:10281000b14721000100b8000100d100d8cc2c0044
:102820000801b8004319de006a11b9000200500027
:102830000043b0003d0b0700404980000800b8008d
:102840004308de000804b8004349de006a11b900fd
:10285000020050000043b000340b070011003700a5
:1028600000c2b300310b070040498000e90f50005f
:102870000a003600d1cc2c000101b8004318de005c
:102880000101b8004319de006a11b90002005000ce
:102890000043b000250b07000200370000c2b30060
:1028a000220b0700e0c2b300200b07004049800064
:1028b000d2cc2c000201b8004319de006a11b90025
:1028c000020050000043b000180b070090d728000a
:1028d0001d0b0700f0d728001b0b07006049800084
:1028e000e90f500003003e0030d72800160b070008
:1028f00088003700f1702200810f50002b00360055
:102900004400de00713420000100b8004308de00fe
:10291000d8cc2c000801b8004319de006a11b900b8
:10292000020050000043b000000b07006049800027
:102930004300de00510c22000100b8004408de0014
:102940000801b8004319de006a11b9000200500006
:102950000043b000f50a0700604980004200de0035
:10296000b14721000100b8000100d1000801b80002
:102970004319de006a11b900020050000043b000a4
:10298000ea0a0700604980000800b8004308de003a
:102990000804b8004349de006a11b9000200500083
:1029a0000043b000e10a07005200370000c2b30044
:1029b000de0a070060498000713e2000810f500050
:1029c000200036004300de00510c22000100b80058
:1029d0004408de00d8cc2c000801b8004319de0002
:1029e0006a11b900020050000043b000cf0a07008e
:1029f00061498000c208de00b04721000008b8002d
:102a00000100d1000801b8004319de006a11b900c5
:102a1000020050000043b000c40a07006049800073
:102a20000800b8004308de000804b8004349de008f
:102a30006a11b900020050000043b000bb0a070051
:102a40002c00370000c2b300b80a070060498000bc
:102a500031062000810f5000150036004200de00d4
:102a6000b14721000100b8000100d100d8cc2c00f2
:102a70000801b8004319de006a11b90002005000d5
:102a80000043b000a90a0700604980000800b800b0
:102a90004308de000804b8004349de006a11b900ab
:102aa000020050000043b000a00a070011003700e8
:102ab00000c2b3009d0a070060498000e90f500082
:102ac0000a003600d1cc2c000101b8004318de000a
:102ad0000101b8004319de006a11b900020050007c
:102ae0000043b000910a07000200370000c2b300a3
:102af0008e0a070060498000d2cc2c000201b80089
:102b00004319de006a11b900020050000043b00012
:102b1000860a070060d828008b0a070020d4280006
:102b2000890a0700a0d82800870a0700d8cc2c0003
:102b3000c04980000800b8004308de000801b80062
:102b40004319de006a11b900020050000043b000d2
:102b5000760a0700c04980000801b8004319de006a
:102b60006a11b900020050000043b0006f0a07006c
:102b700000d92800740a0700b04980000800b80096
:102b80004308de000801b8004319de006a11b900ed
:102b9000020050000043b000640a0700b049800002
:102ba0000801b8004319de006a11b90002005000a4
:102bb0000043b0005d0a070000d92800620a070040
:102bc000a04980000800b8004308de000801b800f2
:102bd0004319de006a11b900020050000043b00042
:102be000520a0700a04980000801b8004319de001e
:102bf0006a11b900020050000043b0004b0a070000
:102c0000e0d42800500a070020d928004e0a070007
:102c1000e04980000800b8004308de000801b80061
:102c20004319de006a11b900020050000043b000f1
:102c30003e0a0700e04980000801b8004319de00a1
:102c40006a11b900020050000043b000370a0700c3
:102c500000d928003c0a0700d04980000800b800cd
:102c60004308de000801b8004319de006a11b9000c
:102c7000020050000043b0002c0a0700d049800039
:102c80000804b8004349de006a11b9000200500090
:102c90000043b000250a0700e0d428002a0a0700f4
:102ca00060d92800280a070090498000e30f5000ef
:102cb00003003e00c0d92800230a07002f00370078
:102cc000713e2000810f50000c0036004300de00f2
:102cd000510c22000100b8004408de00d2cc2c00c8
:102ce0000201b8004319de006a11b9000200500069
:102cf0000043b0000d0a07000200370000c2b30015
:102d00000a0a0700904980004200de00b147210016
:102d10000100b8000100d100d8cc2c000801b80097
:102d20004319de006a11b900020050000043b000f0
:102d3000fe090700e0c2b300fc09070090498000cb
:102d40000800b8004308de000801b8004319de009f
:102d50006a11b900020050000043b000f3090700f7
:102d6000904980000804b8004349de006a11b900a8
:102d7000020050000043b000ec09070020da2800f0
:102d8000f109070080da2800ef0907007049800088
:102d90006f01500061042000810f510003003600d4
:102da00020db2800e809070010003700d8cc2c00f1
:102db0000800b8004308de000801b8004319de002f
:102dc0006a11b900020050000043b000d7090700a3
:102dd000704980000804b8004349de006a11b90058
:102de000020050000043b000d009070050db28006b
:102df000d5090700b0db2800d3090700804980000f
:102e0000713e2000810f5000200036004300de009c
:102e1000510c22000100b8004408de00d8cc2c0080
:102e20000801b8004319de006a11b9000200500021
:102e30000043b000bd090700804980004200de0069
:102e4000b14721000100b8000100d1000801b8001d
:102e50004319de006a11b900020050000043b000bf
:102e6000b2090700804980000800b8004308de006e
:102e70000804b8004349de006a11b900020050009e
:102e80000043b000a90907002c00370000c2b300be
:102e9000a60907008049800031062000810f5000fc
:102ea000150036004200de00b14721000100b800e5
:102eb0000100d100d8cc2c000801b8004319de0075
:102ec0006a11b900020050000043b00097090700e2
:102ed000804980000800b8004308de000804b800fc
:102ee0004349de006a11b900020050000043b000ff
:102ef0008e0907001100370000c2b3008b090700dc
:102f000080498000e90f50000a003600d1cc2c0027
:102f10000101b8004318de000101b8004319de00ca
:102f20006a11b900020050000043b0007f09070099
:102f30000200370000c2b3007c090700804980000e
:102f4000d2cc2c000201b8004319de006a11b9008e
:102f5000020050000043b0007409070030dc280074
:102f600079090700f700370050d4280076090700d8
:102f7000e0478000f1478000f2702200820f50008d
:102f8000e08f580027003600027122000300200065
:102f900049f60700a20020000300200056f60700b3
:102fa0000043b00061090700823e200003002000ba
:102fb000e0478000f14780003ff60700a2002000b4
:102fc000030020004cf607000043b000570907003b
:102fd0004206200003002000e0478000f147800007
:102fe00035f60700a20020000300200042f607008b
:102ff0000043b0004d090700a2002000030020009c
:10300000e0478000f14780002bf60700a200200077
:103010000300200038f607000043b0004309070012
:103020005200370000c2b30040090700e0478000ab
:10303000f1478000723e2000820f5000e08f580060
:103040001d003600823e2000030020001af6070013
:10305000a20020000300200027f607000043b00074
:10306000320907004206200003002000e0478000ec
:10307000f147800010f60700a200200003002000a6
:103080001df607000043b00028090700a200200039
:1030900003002000e0478000f147800006f60700ab
:1030a000a20020000300200013f607000043b00038
:1030b0001e0907002d00370000c2b3001b090700de
:1030c000e0478000f147800032062000820f500068
:1030d000e08f580013003600420620000300200055
:1030e000f5f50700a20020000300200002f607000b
:1030f0000043b0000d090700a200200003002000db
:10310000e0478000f1478000ebf50700a2002000b7
:1031100003002000f8f507000043b0000309070092
:103120001200370000c2b30000090700e04780002a
:10313000f1478000e90f5000e08f58000900360089
:10314000a200200003002000dbf50700a200200001
:1031500003002000e8f507000043b000f308070073
:103160000200370000c2b300f0080700a2002000f0
:1031700003002000e0478000f1478000def50700f3
:103180000043b000e9080700e0d42800ee0807007b
:1031900020d52800ec08070002c9bf000080fb0012
:1031a000d8cc2c000801b8004319de006a11b90020
:1031b000020050000043b000dc080700e0d4280003
:1031c000e108070070dc2800df080700a0d828000d
:1031d000dd080700c04980000800b8004308de0091
:1031e0000801b8004319de006a11b900020050005e
:1031f0000043b000cd080700c04980000801b800b6
:103200004319de006a11b900020050000043b0000b
:10321000c608070000d92800cb080700b049800085
:103220000800b8004308de000801b8004319de00ba
:103230006a11b900020050000043b000bb0807004b
:10324000b04980000801b8004319de006a11b900d6
:10325000020050000043b000b408070000d9280065
:10326000b9080700a04980000800b8004308de0044
:103270000801b8004319de006a11b90002005000cd
:103280000043b000a9080700a04980000801b80069
:103290004319de006a11b900020050000043b0007b
:1032a000a2080700e0d42800a708070020d92800ba
:1032b000a5080700e04980000800b8004308de00c8
:1032c0000801b8004319de006a11b900020050007d
:1032d0000043b00095080700e04980000801b800ed
:1032e0004319de006a11b900020050000043b0002b
:1032f0008e08070000d9280093080700d0498000f5
:103300000800b8004308de000801b8004319de00d9
:103310006a11b900020050000043b00083080700a2
:10332000d04980000804b8004349de006a11b900a2
:10333000020050000043b0007c080700e0d42800e1
:103340008108070020d428007f0807004f04be0032
:1033500000000600fc02fa0040d02f000f004000e1
:10336000411129004f00090031187800000ab1000e
:1033700040da2f000f004000c10e290013000900a1
:10338000311878008002b100c0dc2f000f0040002f
:10339000c107290037000900311878000007b10083
:1033a000c0e32f0000804700c1f328009f00090000
:1033b00031187800c2f72f000281470080eb280007
:1033c0004100090030197800904980007102200006
:1033d000810f50000b003e004200dd0041d02f0065
:1033e0008f8040000080400002002000832c2400d9
:1033f0001000be0010f70700eef4070090498800a7
:103400004d00370081fd2f0080804000f38f500079
:103410000d003e000100d1004200dd0042d02f002f
:103420000f0141000000410002002000832c240015
:103430009090900000909000fff60700ddf40700e8
:10344000904988003c00370041fc2f0080804000fc
:10345000b2082000828f50000f003e00d0cc2c001c
:103460000008b8004208de004200dd0041d02f0015
:103470008f8040000080400002002000832c240048
:10348000d0a0900040a09000ebf60700c9f4070020
:10349000904988002800370081f32f008080400089
:1034a000f2312000828f50000f003e00d0cc2c0063
:1034b0000008b8004308de004200dd0042d02f00c3
:1034c0000f0141000000410002002000832c240075
:1034d000d018910040189100d7f60700b5f4070006
:1034e0009049880014003700803eb100f127200089
:1034f000810f50000f003e00d1cc2c000100b8001d
:103500004408de004200dd0041d02f008f804000e3
:103510000080400002002000832c2400d03892005c
:1035200040389200c4f60700a2f4070090498800d2
:10353000010037003229ef000080fa000000060089
:10354000f6874700889fbe008a9fbe008c9fbe0002
:103550008e1f7800a2070700eb0707003082a80043
:1035600033c2a800cde2a800cd02a80030de2800ba
:10357000f5070700e0e22800f307070060e42800f1
:10358000f1070700d8cc2c00004b80000800b800e1
:103590004308de000801b8004319de006a11b900d3
:1035a000020050000043b000e0070700e0c2b30093
:1035b000de070700004b80000804b8004349de0026
:1035c0006a11b900020050000043b000d70707009d
:1035d00020d42800dc0707000000eb0004050700ea
:1035e00062c9bf00f30407000000e0000d003a00cc
:1035f00010e52800d407070062c9bf00f1070700e3
:1036000090e62800d00707000000eb004f07780085
:103610004f06be004f05be004f04be006f01b10053
:10362000000006000040eb0087060700cd02a9005d
:103630000421ef00f0ca230000088800f1ff2800f1
:1036400020058000808060000000230001007000e1
:10365000200588009460a800000128002008880048
:103660009e882800dbcc2c00230607000000e00029
:103670001d013200e2478000f347800061004100f5
:10368000e0804900e0478800f1478800046a28008c
:1036900015002000840f5000858f580002003a006a
:1036a000fc28ef00fe28ef00ea4480000a007800c2
:1036b000b086fb000d488800104678002590200059
:1036c0008c4a7800884880009948800002e12000f8
:1036d000030020000800be0027f40700c04988004e
:1036e00002e12000030020000800be0063f4070090
:1036f000c2032000030020001ff40700b049880027
:10370000c2032000030020000800be005bf4070095
:10371000a04988000c86fb000c0646004091200062
:1037200060007e000e01b800c518de00e149880087
:10373000c20320000289b90002015000d24988006a
:103740000d00e0006b013a002a419000319020000a
:10375000824878003a4190006390200082497800c6
:103760004a40900007e9b7004811dd000080fb00e7
:10377000000141008001eb0000002c00210120002d
:103780004df4070050498800da419000e590200090
:10379000834a78006a419000f4902000024a780041
:1037a000c819dd000281fb00028141000200b8005f
:1037b000e00f5000e08f580002003d00f03fb000e5
:1037c0000180b000c609dd004a01de0002817100ff
:1037d000b2b79f004a8ade00c4b79f008202780019
:1037e00095498800dbfe0700e144800071409000ad
:1037f00004e9b70081489000529020000149780008
:103800005a4980004800dd008180fb000100400033
:103810000050b800e00f5000e08f580002003d005b
:10382000f03fb0000180b000c60add004a02de00b1
:1038300004827200f4b79f004a89de0082bf9f00b5
:103840008401780033498800030278006120b800c1
:10385000f3f307000004be006150b800f0f3070066
:103860000801be0027f407000001be000800be00ea
:1038700012f5070002002400c3612400eef50700e2
:10388000104a8800214a880002002400c3612400f5
:103890000af50700c5f7070032d62100b3992300c7
:1038a000e5f50700104a8800214a8800f2f02c0054
:1038b000b3b523001cf407000001be000000200087
:1038c00001f82300fdf407000200280083382400db
:1038d0000cf40700f0498800014a8800020020002b
:1038e00003112400d4f5070002002000030a24007d
:1038f000f2f4070002002000032024000af407006d
:103900000200200003122400cbf50700a9f30700f2
:1039100040498800e8448000184890000ae9b70050
:10392000a8489000b5902000814a78005a4980004c
:103930004800dd008180fb00010040000050b8001d
:10394000e00f5000e08f580002003d00f03fb00053
:103950000180b000460add00ca01de00830172006a
:1039600093b79f00ca8ade00a5b79f0003007800c6
:103970006101b800046a28000410b8008100410009
:103980006151b8007cf30700224d2c00f3ff2f009b
:103990000000410081804900c22720000300200070
:1039a00075f30700704988003848900008e9b700af
:1039b000c848900093902000814978004800dd00bd
:1039c0008180fb00010040000050b800e00f500073
:1039d000e08f580002003d00f03fb0000180b000d1
:1039e0004609dd00ca02de0085027100d5b79f00de
:1039f000ca89de00e3b79f000500780060498800af
:103a0000ea0f500012003600000055008000eb0065
:103a100083f30700104a8800214a880092c22500db
:103a2000f3fc2300a5f40700304a8800414a8800cf
:103a300002002000832c24007ff5070002002000f4
:103a4000832424009df407005af30700604988008e
:103a5000584890000ce9b700e8489000d590200045
:103a6000814a78004800dd008180fb0001004000b1
:103a70000050b800e00f5000e08f580002003d00f9
:103a8000f03fb0000180b000460add00ca01de0050
:103a900083017200f3af9f00ca8ade0085b79f00e2
:103aa00003007800804988005dfa070002c9bf0062
:103ab0000080fb0000004000419120000080400099
:103ac0000008eb00cde2a900920037000000e900f9
:103ad000feff3a0000322000504a8800cde2a800e4
:103ae000b1030700e0fe3700560607004ce9b700b7
:103af000e14f5000dcfe3a00884880009948800081
:103b000002e12000030020000800be001af30700b5
:103b1000c049880002e12000030020000800be0028
:103b200056f30700c20320000300200012f3070031
:103b3000b0498800c2032000030020000800be0036
:103b40004ef30700a049880002c9bf000080fb00b7
:103b50000000400041912000610078000e01b80093
:103b6000c518de00e1498800c20320000289b900bf
:103b700082005000d149880030e928007206070011
:103b8000c04980000b00b8004308de000b01b800fc
:103b90004319de006a11b900020050000043b00072
:103ba00062060700c04980000b01b8004319de001f
:103bb0006a11b900020050000043b0005b06070024
:103bc00000d9280060060700b04980000b00b8004b
:103bd0004308de000b01b8004319de006a11b9008a
:103be000020050000043b00050060700b0498000ba
:103bf0000b01b8004319de006a11b9000200500041
:103c00000043b0004906070000d928004e0607000f
:103c1000a04980000b00b8004308de000b01b8008b
:103c20004319de006a11b900020050000043b000e1
:103c30003e060700a04980000b01b8004319de00d2
:103c40006a11b900020050000043b00037060700b7
:103c5000e0d428003c06070020d928003a060700d7
:103c6000e04980000b00b8004308de000b01b800fb
:103c70004319de006a11b900020050000043b00091
:103c80002a060700e04980000b01b8004319de0056
:103c90006a11b900020050000043b000230607007b
:103ca00000d9280028060700d04980000b00b80082
:103cb0004308de000b01b8004319de006a11b900a9
:103cc000020050000043b00018060700d0498000f1
:103cd0000b01b8004319de006a11b9000200500060
:103ce0000043b00011060700b0e9280016060700df
:103cf0005dfe3700caf9070002c9bf000080fb0063
:103d00000000400041912000008040000008eb00ce
:103d1000cde2a900003220006cff37000200fa005b
:103d2000889fbe000004780081447800b0048000c1
:103d30004400de0061406000a0ff9f009680a90063
:103d4000cc62a9004340de000074a0009106070089
:103d50004540dd000044a0008e06070009407800c1
:103d60008c060700cc62a800aff8970061c0600025
:103d7000610060004400dd00b10480000140a1004a
:103d800081007000b10488004f04be000080fa007a
:103d9000000006000200fa00881f78000144780045
:103da000b1048000c408de00e1c06000c1ff9f00d4
:103db0009680a900cc62a90076060700084078002a
:103dc00074060700cc62a800cff8970061c06000bd
:103dd000610060004400dd00b10480000140a100ea
:103de00081007000b10488004f0478000080fa0060
:103df000000006000200fa00b1048000c408de00e2
:103e0000e1c06000e1ff9f009680a900cc62a9009c
:103e10006006070068060700cc62a8006ff99700eb
:103e2000e1406100e1806000c408dd00b204800070
:103e30000240a10002817000b20488000080fa00f4
:103e4000000006000200fa00881f780000047800d5
:103e5000b00480004400de0061406000c0ff9f00ad
:103e60009680a900cc62a9004340de000074a00047
:103e7000480607004540dd00460607004e060700dd
:103e8000cc62a8004ff99700e1406100e18060003a
:103e9000c408dd00b20480000240a100028170006d
:103ea000b20488004f0478000080fa000000060089
:103eb000faa8a90000000600c202ab0001003a0007
:103ec0008680a800fac8bf000008a30007003200df
:103ed000f0072000a408e30003003600a428ef0048
:103ee000fa08a90001003700a428ec00a18f2000e7
:103ef000914078000000eb000158a3008a003200d6
:103f00000268ef000c28ef00c0ccb300c18a20008b
:103f10009140780000c06000c1c8b300814f5000dc
:103f20005600320007003e0001c8b300814f500028
:103f30002400320081c8b300814f50005a003a007b
:103f40003400370081ccb300814f500004003200b0
:103f5000c1ccb300814f500053003a00100037002d
:103f6000b0c8bf00e14f400004003a00b1c8bf0034
:103f7000e14f400001003a000248a80002e8a80012
:103f8000208b200020408800aac8bf00734050004a
:103f900008e8b700a08b20003040880045003700bb
:103fa00002e8a800808b200020408800aac8bf003b
:103fb0007940500008e8b700008c200030408800ad
:103fc0003c0037000248a80002e8a80010002000ca
:103fd00060408800e18a200091407800e080200065
:103fe00001487800f18a200091407800f08020009c
:103ff00001487800008b200020408800aac8bf003c
:104000006b40500008e8b700208b2000304088004b
:1040100028003700b0c8bf00e14f400004003a005c
:10402000b1c8bf00e14f400001003a000248a800bb
:1040300002e8a8001000200060408800e18a20000b
:1040400091407800e080200001487800f18a20004b
:1040500091407800f080200001487800208b2000fb
:1040600020408800aac8bf006d40500008e8b70093
:10407000408b2000304088000e00370002e8a80086
:104080001000200060408800708b200020408800d5
:10409000aac8bf007340500008e8b700a08b2000fa
:1040a000304088000300370081ff07000000eb006c
:1040b0001d003700abc8bf000080fb000038a30024
:1040c000030032007aff07000000eb001600370003
:1040d00067006000e10f500005003200e30f500060
:1040e000070032000000e000090032000c00370039
:1040f0000208a9000228a900100020000a003700c9
:104100000208a8000228a9001000200006003700bd
:104110000208a8000228a8001000200002003700b2
:1041200063ff07000000eb00000006006b41500039
:104130008000eb00ef4f51000e003e00ece8b700ae
:104140008080fb00eb805000c408dd003140b300ec
:1041500000202000f1fe070041c0b300d0c6b3002c
:104160000cff07008040eb00d0c6b30009ff07003a
:10417000110020000100780000000600889fbe00aa
:10418000cca2a900c01220000000e900feff3a0006
:10419000cca2a800c01220000000e900feff3a00f7
:1041a00071c0b30050c5b300fafe070048c5b300a4
:1041b000084078000fff070067006000fcff3a002e
:1041c000803e20000000e900feff3a0011c0b3006d
:1041d000b0c1b300effe070080c0eb0070c0b300b9
:1041e000ecfe070080c0eb0090c0b300e9fe0700c2
:1041f00080c0eb0030c0b300e6fe070080c0eb00db
:1042000050c0b300e3fe0700b9c0b3000004eb00e8
:1042100008007800a808b400800078009140780079
:1042200009407800dbfe07000804e80089c4e800c4
:10423000e80f5400f6ff3a0031c0b3000020200020
:10424000b6fe070021c0b30010202000b3fe070017
:1042500001c8b30020202000b0fe07008040eb0022
:1042600030202000adfe070001c9b300602020000f
:10427000aafe070001c8b30070202000a7fe0700b7
:1042800001c1b30080202000a4fe070011c0b300cc
:1042900000222000a1fe070001c8b30050c7b300f0
:1042a000bcfe070001c4b300d0c7b300b9fe0700cd
:1042b00001c6b300f0c7b300b6fe070081c9b30062
:1042c00010c3b300b3fe070051c9b300d0c5b3009b
:1042d000b0fe0700f9202000080a2000090078003d
:1042e000d8fe070000006400880f5000fbff3a0072
:1042f00061ceb30050c6b300a6fe070031c0b300c4
:104300000020200085fe070021c0b30010202000ff
:1043100082fe07008040eb00ecc8bf0083ff07006f
:104320004f04be00000006000080fb00d2cc2c0031
:104330000201b800c318de006a09b900024050004b
:10434000c608dd00e54f5000020036008143b00092
:1043500013003700e44f5000020036000143b00064
:104360000f003700e34f5000020036008142b000da
:104370000b003700e24f5000020036000142b0004f
:1043800007003700e14f500002003600f8c040003f
:10439000030037000004e00001003200f0c04000dc
:1043a000302020005dfe0700100020000000060005
:1043b00001017800b0407800038f20008149780027
:1043c00010427800138f20008449780002007800a2
:1043d000b0417800e28e2000034978001041780057
:1043e000f48e2000024a780070c0b30069fe070016
:1043f000118f20009140780090c0b30065fe070047
:10440000e18e20009140780030c0b30061fe0700cb
:10441000f18e20009140780050c0b3005dfe07008f
:104420001000200000000600f0874700889fbe00b3
:104430008a9fbe008e1f780080037800788757001f
:10444000001f7800010f7800e2b79f00f3b79f00cc
:1044500084bf9f0005077800864578000028a300e8
:104460000200320010002000e0b79f000738a300d0
:10447000020032000000eb00f0b79f006380630091
:1044800039c0b300e10f500005003200800478000d
:1044900009f0a7008904ea008904e900cf4cde0096
:1044a0000964a0006fb59700d8c0b3000a00e0000f
:1044b0000100320078c0b300ffb097000100e000b7
:1044c0000200320008c4e8000100370068444400dc
:1044d0004702b20001022000818f530001003a0020
:1044e0000954a000e30f500007003a00100020001c
:1044f000f0b79f00cfb097000150a100c1b79f0057
:104500008044eb0078c0b300884078000000eb00e6
:1045100002fe07008b40440010002000fffd070052
:104520008940780020002000fcfd07004fb1970073
:1045300063006100e30f50000b003a0001c8b300b4
:1045400030002000f5fd0700b18e2000914078007a
:104550000140e800ebe8b70040002000effd070055
:1045600059c0b300440037000a00e0000b003200dd
:104570007fb097000000e0000400320081c8b30063
:1045800030002000e5fd07000e00370081ccb300ad
:1045900030002000e1fd07000a0037007fb09700df
:1045a000e10f500004003a00c1c8b3003000200001
:1045b000dafd070003003700c1ccb3003000200053
:1045c000d6fd0700b18e2000914078000140e80040
:1045d000ebe8b70040002000d0fd07008ff0970007
:1045e00050002000cdfd07009ff0970060002000e4
:1045f000cafd0700cfb19700648061000800320057
:1046000080c0eb0070002000c4fd070080c0eb00fc
:1046100080002000c1fd070099c0b30016003700dc
:104620000004eb006fb097000000e00009003200ca
:104630005fb49700b840780070002000b7fd070015
:104640009840780080002000b4fd070099c0b300b6
:1046500009003700dfb097000880400090407800e4
:1046600067004400adfd07000804e800e80f5400af
:10467000f8ff3a00f9c0b3000004eb007fb09700e8
:104680000000e0000d0032000945e8000980fb0051
:10469000018f200091407800a0fd07000a44e80047
:1046a0000a80fb00118f2000914078009bfd0700dd
:1046b0000b04e0000d003a001500370008007800f8
:1046c000a808b400800078009140780008c0440039
:1046d0000080fb0091fd07000804e800e80f54008b
:1046e000f6ff3a0068c44400f1ff37000e05780079
:1046f0008a047800b94078000880fb000844e8008c
:1047000086fd07000ac054008b4f5000f9ff3900a6
:10471000fa08a80042022000cfb097000281600092
:1047200011c0b30000022000800f510001003a00c8
:1047300051c0b30070c3b30096fd07006e805700f0
:10474000250407001fbc9700afbc97004a9c2000bf
:104750000b002000c202ab0001003a008680a800d6
:10476000fac8bf000008a30008003a00a18f20008b
:1047700091407800100020000128a30012003200b0
:10478000fa48a9000000eb000f0037006e805700c8
:10479000110407001fb99700afb997000800510036
:1047a000898059008a0f50008b8f5800e9ff36002e
:1047b00072fe0700e18e2000008f2000fcfe070043
:1047c000fa08a9000000eb004f0778004f05be0073
:1047d0004f04be000f01b100000006003045880004
:1047e0004145880030088000ebe8b700b0c0b30056
:1047f000ece8b70061fe0700fa68ef001000200047
:10480000000006000000000000000600ec874700e2
:104810008e1f780081037800820078000041eb0051
:10482000c2f79f0003f0a7008301ea000301ea003a
:104830004f11de00c6ff2f00afb99700068361005d
:10484000060371000001780002f0a7000201ea00ef
:104850008202e900cf2ade00c529dd000650a10052
:104860000683710061006000c201dd00060078006f
:104870000020a10000807100610262004322dd007f
:104880000030a100000072008001eb00d3bf9f0048
:104890000201ea004f11de00c2bf9f00c62add0000
:1048a0000060a100008072000070a0006c875700bb
:1048b000001f7800010f7800e7bf9f00868320006b
:1048c000164378000581200007027800d6fe070015
:1048d0003868ef004f077800cf00b10000000600f5
:1048e000000278008001eb0003017800d1418000d4
:1048f00010002000c5ff070000000600020278003b
:104900008001eb0000017800d141800003007800b5
:10491000beff0700000006008081fb0092c0b300cc
:104920000440bc0040842000604179000000eb009e
:104930000278a300060032006919b900c083200084
:10494000020040000101780011002000ebff070089
:10495000000006000001eb009041780091cf51006b
:1049600009003a0067014000d0417800d1cf5100e2
:1049700004003a00820f5000fbff3a0012002000b2
:10498000010037000001eb00020078000000060083
:1049900080407800100020000104e0000100320097
:1049a0000000eb00000006003968a90040fd070088
:1049b00000000600881f7800004478008040eb006b
:1049c00008407800d9fd0700800078000000eb0067
:1049d0000100e000040032008840780000802000e0
:1049e00001487800100020004f0478000000060005
:1049f0000200fa00881f7800000478003968ef0090
:104a000040842000e28920008040eb0001487800cb
:104a100069004000820f5000fcff3a006a03070063
:104a20003868ef0040232100d04188006000b800c2
:104a3000819520000010a0000030a1000040a100de
:104a40000050a1000060a000610464004244dd0049
:104a5000000178000220a100020074000000a10003
:104a60005eff07000080eb00e0bf9f00a1832000f5
:104a7000648057004efe070000c8bf00cdff07004e
:104a800001c8bf004400dd000004a000a2e8b70098
:104a90009680a800100020004f0478000080fa00e3
:104aa00000000600889fbe008a9fbe008c1f780011
:104ab00000447800e94f540023003e00401b2900c9
:104ac000a10207008884fb000840780092c0b30070
:104ad0000440bc0040842000604079000078a300be
:104ae0003e00320008407800aa020700601e29003c
:104af00095020700694db90030842000000545008b
:104b00000044eb00491f2900e74f540003003e001a
:104b10001a4078009f020700020037000900780061
:104b2000890207000844e8000a05e900e84f54003c
:104b3000f5ff3a00701f290083020700c01f2900fb
:104b40008102070025003700401b29007e02070074
:104b50000005eb00cb8320004c1f29000a407800a1
:104b60008a0478006951b900e8004100ebc0780080
:104b70000178a3001600320086020700601e29009b
:104b8000710207006948b900e70440008b844400c3
:104b90000044eb00e74f540003003e00194078004a
:104ba0007c020700020037000c0078006602070054
:104bb0000844e8008904e900e84f5400f5ff3a0092
:104bc000701f290060020700c01f29005e02070055
:104bd0000a05e800ea0f5500e0ff3a004f067800aa
:104be0004f05be004f04be0000000600889fbe00b7
:104bf0008a9fbe000004eb0080c5eb00c983200043
:104c0000080178006940b9006800400069407800f8
:104c10000078a300080032006911b9000281440045
:104c200082007800d04480004aff07000000e000c6
:104c30000400320008003700e1cf450001003a00cf
:104c4000884578000804e800ea0f5400ecff3a00b9
:104c50008041eb00020037008845780013c0b300a4
:104c6000e1cf45001e00320001c8bf00e14f5000f7
:104c70001c003e00d14480000b82fb000b407800fa
:104c800092c0b3000440bc00b0832000000041008b
:104c90006881400031687800828f5000fdff3a0043
:104ca0006922b900408420000402400014407800ca
:104cb0000074a000004a7800e14480008180e80090
:104cc00091407800e1c060000004a100014a70003a
:104cd0000b407800a3e8b7003988a900010037002d
:104ce00013cfb300034078004f05be004f04be0051
:104cf0000000060070fc07000000e0007d003200ac
:104d00009668ef0010408000c200de00e180600085
:104d1000b24480000200a100028170008000d10036
:104d2000e48060000220a10002817000e3006000c6
:104d30000100a2008100e900cf08de00c408dd0008
:104d40000240a10002817000c200de000102b20038
:104d50000250a10002817000b24488000078a300d4
:104d6000020032000408f8009a08f900818020004f
:104d700091407800e28920000149780030408000ad
:104d8000e04488009688ab004700320090407800ed
:104d900012c8b30082cf50000400320012c9b30021
:104da00082cf50003e003a002f00370010409000a4
:104db0000048e300020032003dfc07003b003700e2
:104dc0008aff07001180200091407800e3cf500057
:104dd0000a003200e2cf500003003a00e24f5000d8
:104de00006003a003c003700e1cf500005003a00d1
:104df0008040e900e1cf5000020036002cfc0700a3
:104e00002a00370012c9b3000381200082497800cc
:104e100011e8b70022c0b3008383200082497800e4
:104e2000e14f500006003e00238a200093417800a5
:104e3000208120000348780030c0b30038e8b70074
:104e40001bfc0700b44480004222de0061026200c5
:104e500013002000d2448000d14180000000eb000c
:104e60006afe07001100370010409000e14f50002b
:104e700003003600e24f500007003a0002003700fe
:104e80005aff07000400370039c8bf000058a300cc
:104e90000100320039a8a90005fc07000300370013
:104ea0003968a800010037003968a8009e48e20070
:104eb0000600320039c8bf000048a30003003a00d2
:104ec00039c8bf000058a3000a0032003968a900a1
:104ed000f7fb07000700370013c9b3000281200069
:104ee0000349780011e8b70020c0b30038e8b700e4
:104ef000d3ff3700000006007eff070039c8bf005f
:104f00004300de006100600000000600e887470003
:104f1000889fbe008a9fbe008c9fbe008e1f7800b7
:104f2000128020001241780082f79f0000c0eb0041
:104f3000e1cf50003e003200748057002602070087
:104f4000cabd2000fbff2f006fb09700ffb0970095
:104f50000005450081854d000168ef003988a800f3
:104f60000044eb0039c0b3004c422f000d0020007c
:104f70001ec8b300250037007480570016020700d2
:104f80006fb09700ffb097000a0150008b81580066
:104f90008c0f51008d8f59001b0036000005be009c
:104fa0000804e000020032000844e900170037005e
:104fb0000904e0001d0032008944e900018120005d
:104fc0008e487800018020009140780012812000f6
:104fd00001497800218a2000914078002281200038
:104fe0000149780030c0b30038e8b7000002eb0098
:104ff0001300200004017800d141800003007800f4
:1050000002fe070018c0b3003aff070039c8bf000e
:105010000048a300d8ff3a008ff0970010802000ce
:1050200001487800a3c8bf000100370000c0eb00b2
:105030004f0778004f06be004f05be004f04be006c
:105040008f00b10000000600e34f500007003e0053
:1050500001e8b7004400dd00218a2000914078007b
:10506000efc0600001407000a2e8b7000000060039
:10507000881f78000200e000130034000002eb00fb
:105080008002780081017800905978001003be00fa
:10509000483cdd004833de0006037400c83bde00f8
:1050a000864978003003be00403bde00a6409800f1
:1050b000b5429000b54098000402e800e48040004a
:1050c000820f5200eeff3a004f0478000000060005
:1050d0001000fa00889fbe008a9fbe008c9fbe0011
:1050e00000057800010478003a1c78003a1c78002a
:1050f0003a1c78002a14780068854000400190002e
:10510000d0019000028dbe00810578007802200059
:105110000900200050ef2000c192210052882f008a
:1051200093362700a0b79f00b1b79f00c2b79f007a
:10513000d3b79f008cbf9f009dbf9f003b06be0062
:105140001a00be00c4ff2f00f5ff2f0004026e00fe
:1051500085826e00e4b79f00f5b79f00cd06dd00a5
:10516000430ede000d0676009cbf9f00cd0edd00d5
:105170004306de000d0676008cbf9f000fbb970034
:105180009fbb970006016a0087816a00cc0edd0094
:105190004406de000d0276004c06dd004408de0009
:1051a0008c02700004006900858069008003eb00b8
:1051b0002fb69700610366000601680087816800ca
:1051c00002adbe002fb09700bfb097004fb197005f
:1051d000dfb197008301d1000281d3008180d30029
:1051e0000080d300a0b79f00b1b79f00c2b79f0057
:1051f000d3b79f0061045400e0845c00cfff3a0005
:105200004f06be004f05be004f04be000080fa00ee
:1052100000000600fc874700889fbe008a9fbe00f2
:105220008c9fbe008e1f780000057800210690003c
:10523000b10690000cadbe00311878002110780046
:105240004c0a2000020646009b0220008cbf9f00f3
:105250001001be00ce1ede00c210dd008d80700089
:10526000a1b79f00ce16de00c218dd008d80700051
:10527000b1b79f002fb39700bfb397003a026b00fe
:10528000aa826b00c4b79f00d5b79f00c81ede007e
:10529000c810dd008d807000e1b79f00c816de00e9
:1052a000c818dd008d807000f1b79f00cf16de00ba
:1052b0008300d0008d827000cf18de000201d00084
:1052c00001027100ffb397008783620097b79f00c8
:1052d0006fb497000804620088b79f004fb697002c
:1052e000dfb697000fb397009fb3970006016e00db
:1052f00087816e00028dbe008fb897002104be002a
:105300000801690089816900028dbe004e1fde0020
:10531000c216dd008e867600edaf9f004e17de00d0
:10532000c21edd008e867600fdaf9f006fab97003a
:10533000ffab970030066b00a0866b00ccb79f00d8
:10534000ddb79f00481fde00c816dd000e83760023
:105350004817de00c81edd008e8376004f1fde007a
:105360008206d0000e847600cf16de000301d00046
:105370008d04710007866400dcaf9f008606640020
:10538000cdaf9f004fb19700dfb197004fae9700b0
:10539000dfae97000c0169008d816900c2b79f00e4
:1053a000d3b79f000288be003118690021906900c0
:1053b0008b85e9008fbe9700e88656008dbf9f0061
:1053c000e18f4500a2ff3a004f0778004f06be006c
:1053d0004f05be004f04be00cf01b1000000060023
:1053e000e01320001012880000002800001288003e
:1053f0008220a800f0ff2700601988006ae0a8005a
:105400006980a800cc62a800c862a900cd82a8006b
:10541000c982a900c902a900c9e2a900c8e2a8007e
:10542000c9c2a8008680a9009680a800c202ab006d
:1054300001003a008680a800000006000000060077
:10544000000006000400fa00881f7800cae2ab00e2
:105450000d003a000040eb005209e20027003a003c
:1054600018002000984a880066805700da0007007c
:105470005fb89700efb89700a04a8800b14a88004b
:10548000084078001d003700cbc2ab000d003a0089
:105490000040eb005209e20018003a001000200022
:1054a000904a880066805700cb0007005fb89700dd
:1054b000efb89700a04a8800b14a880020c0b30026
:1054c0000e00370066805700c3000700a24a800024
:1054d000b34a80005fb89700efb897000201500010
:1054e000838158000040eb00f1ff2300810f510041
:1054f000e08f5900010036005229ef004f04780078
:105500000080fa0000000600c0002000c0118800e2
:1055100087c0a9003222ef00000820008011880017
:1055200031e2a8003342a80000000600021020006b
:105530009311800083006100fdff32000080fb00ba
:10554000a011880000000600881f78000004780081
:10555000184078000004e000050032000804e8006c
:10556000f2ff0700384078000004e000fcff3a003a
:105570004f0478000000060001002400320480007f
:1055800002806000fdff3200b011800087c0a900da
:1055900000000600889fbe00004478000880fb00e1
:1055a0004400de000920290069407800dfff070081
:1055b0006f04640069407c00dcff07004f04be00fc
:1055c00000000600889fbe008a1f78008084fb00d0
:1055d000d0cc2c000048b800430cde000880fb0053
:1055e0000a2029006a407800d0ff07006a40b9000d
